:020000040800F2
:10000000500600209D010008A7190008F3170008FA
:10001000A5190008F90200085D1E00080000000094
:10002000000000000000000000000000AB19000804
:10003000A904000800000000A9190008AD19000873
:10004000B7010008B7010008B7010008B7010008B0
:10005000B7010008B7010008B7010008B7010008A0
:10006000B7010008B7010008B7010008B701000890
:10007000B7010008B7010008B7010008B701000880
:10008000B7010008B7010008B7010008B701000870
:10009000B7010008B7010008B7010008B701000860
:1000A000B7010008B7010008B7010008B701000850
:1000B000B7010008B7010008B7010008B701000840
:1000C000B7010008B7010008B7010008B701000830
:1000D000B7010008451E0008511E0008B7010008BE
:1000E000B7010008B7010008B7010008B701000810
:1000F000B7010008B7010008B7010008B701000800
:10010000B7010008B7010008B7010008B7010008EF
:10011000B7010008B7010008551A0008611A000865
:10012000B7010008B7010008B7010008B7010008CF
:10013000B7010008B7010008B7010008B7010008BF
:10014000B7010008B7010008B7010008B7010008AF
:10015000B7010008B7010008B7010008B70100089F
:10016000B7010008B7010008B7010008B70100088F
:10017000B7010008B7010008B7010008000000003F
:10018000B7010008B7010008DFF80CD000F0A2F8B2
:10019000004800472D2000085006002006488047F0
:1001A00006480047FEE7FEE7FEE7FEE7FEE7FEE75C
:1001B000FEE7FEE7FEE7FEE7451A000889010008B2
:1001C0002DE9F05F0546002092469B46884606468C
:1001D000814640241BE0284641464746224600F01F
:1001E00069F853465A46C01A914110D31146184631
:1001F000224600F050F82D1A67EB01084F462246C0
:100200000120002100F047F817EB00094E41201EA5
:10021000A4F10104DFDC484631462A464346BDE8E6
:10022000F09F40EA01039B0703D009E008C9121FB1
:1002300008C0042AFAD203E011F8013B00F8013BA0
:10024000521EF9D27047D2B201E000F8012B491ECC
:10025000FBD270470022F6E710B513460A46044663
:100260001946FFF7F0FF204610BD30B50B4601469A
:1002700000202022012409E021FA02F59D4205D345
:1002800003FA02F5491B04FA02F52844151EA2F1EF
:100290000102F1DC30BD202A04DB203A00FA02F131
:1002A000002070479140C2F1200320FA03F3194364
:1002B00090407047202A04DB203A21FA02F0002106
:1002C000704721FA02F3D040C2F120029140084366
:1002D00019467047064C074D06E0E06840F0010300
:1002E00094E8070098471034AC42F6D3FFF750FF6C
:1002F0003022000850220008FEE7000070B50024FC
:1003000000F02AF84FF40075124E04E0641CE4B2C9
:10031000012001F0ABFB2946304600F02DFA10B168
:10032000642CF3D30FE0642C0DD2002404E0641C91
:10033000E4B2012001F09AFB2946304600F01CFA95
:1003400018B1642C04D3012070BD642CEFD3FAE7FC
:10035000002070BD0018024000B585B04FF4007059
:100360000090002001906946024800F00DF905B0A8
:1003700000BD00000018024000B585B04FF40070C9
:10038000009001200190022003906946024800F08D
:10039000FBF805B000BD00000018024010B500F0E9
:1003A00069F8BDE81040FFF7A9BF000070B5002450
:1003B0004FF40075134E04E0641CE4B2012001F018
:1003C00055FB2946304600F0D7F908B1642CF3D329
:1003D000002404E0641CE4B2012001F047FB29463C
:1003E000304600F0C9F908B9642CF3D3282001F095
:1003F0003DFB2946304600F0BFF9002800D001201F
:1004000070BD00000018024070B500200446400690
:10041000050EFFF7CBFF641C2843E4B2082CF6D38B
:1004200070BD2DE9FC410D46064600F023F8FFF7AC
:1004300065FF10B10120BDE8FC8100246F46FFF785
:10044000E3FF3855641CE4B2052CF8D39DF8001086
:100450009DF801009DF803300A189DF8020003443E
:100460001A449DF804309A4201D12980308000203E
:10047000E1E7000070B5FFF77FFF0A4D4FF400740D
:1004800000222146284600F07CF9142000F06AF88A
:1004900001222146284600F074F9BDE870401E2074
:1004A00001F0E4BA00180240704772B6FEE72DE989
:1004B000F0410446876D00F069F9064694F835006E
:1004C0000025022806D08020606584F83450012081
:1004D000BDE8F0812068016821F016010160206804
:1004E000416921F080014161206C08B9A06C20B104
:1004F0002068016821F0080101602068016821F08E
:10050000010101600CE000F041F9801B052807D9CA
:1005100020206065032084F8350084F83450D7E744
:1005200020680068C007EED194F85C103F20884036
:10053000B860012084F8350084F834500020C7E703
:1005400090F83510022903D08021416501207047C1
:10055000052180F835100068016821F00101016073
:100560000020704770B5044600F010F90546601C85
:1005700002D004480078044400F008F9401BA0426F
:10058000FAD370BD100000202DE9F84FDFF8BCA1B0
:100590000022012503264FF00F090AF1040BAAF1EE
:1005A000040E00BF0B6805FA02F42340A34270D189
:1005B0000F7907F00307012F01D0022F16D18768AA
:1005C0004FEA420806FA08FC27EA0C07D1F80CC0EB
:1005D0000CFA08FC4CEA070CC0F808C04768A743AF
:1005E0000C79C4F3001494403C4344600C79E44318
:1005F000A4070AD0C4684FEA420C06FA0CF7BC43C1
:100600008F6807FA0CF72743C7600C7904F00304DE
:10061000022C12D1D40800EB840CDCF820405707E0
:10062000FF0E09FA07F824EA0804D1F8108008FA46
:1006300007F848EA0408CCF8208004684FEA420C26
:1006400006FA0CF7BC430F7907F0030707FA0CF71B
:10065000274307604C6814F4403F70D03C4C276837
:1006600047F480472760246822F0030704F480449D
:100670000094384C07EB040CDCF8084897074FEA65
:10068000177809FA08F7BC43334FB84202D1002764
:1006900024E054E0314FB84201D101271EE0304F31
:1006A000B84201D1022719E02E4FB84201D10327E9
:1006B00014E02D4FB84201D104270FE02B4FB84270
:1006C00001D105270AE02A4FB84201D1062705E0EB
:1006D000284FB84201D1072700E0082707FA08F79A
:1006E0002743CCF80878DAF800405746D1F804C020
:1006F0009C435FEACC2C00D51C433C60DBF80040F7
:100700005F46D1F804C09C435FEA8C2C00D51C43A3
:100710003C60DEF800407746D1F804C09C435FEAB5
:100720008C3C00D51C433C60084F083F3C68D1F826
:1007300004C09C435FEACC3C00D51C433C60521C87
:10074000102AFFF42FAFBDE8F88F0000083C0140ED
:1007500044380240003001400000024000040240E2
:1007600000080240000C0240001002400014024049
:1007700000180240001C02400069084000D001201F
:1007800070470AB1816170470904FBE7014880683E
:100790007047000010000020024881680278114470
:1007A00081607047100000200B4810B5016841F4CB
:1007B00000710160016841F480610160016841F4E9
:1007C00080710160032000F06FF80F2000F006F840
:1007D00000F024F8002010BD003C024070B50D4D23
:1007E00004464FF47A712878B1FBF0F00A490968A1
:1007F000B1FBF0F000F00AFB48B9102C07D2002240
:100800002146501E00F030F800206C6070BD0120C1
:1008100070BD0000100000201C0000200A4808B530
:10082000016841F480410160006800F4804000905C
:100830000548001F016841F080510160006800F028
:100840008050009008BD000044380240002809DBB9
:1008500000F01F02012191404009800000F1E020DA
:10086000C0F8001170470000F0B40E4B1B680C4636
:10087000C3F30223C3F10705042D00D90425191D74
:10088000072901D2002300E0DB1E012606FA05F14C
:10089000491E214099409E40761E16403143F0BCCF
:1008A00001F0EEBA0CED00E0064900F0070208681E
:1008B0004FF6FF03184040EA0220034A1043086045
:1008C000704700000CED00E00000FA052DE9F0474C
:1008D0000E46050065D0DFF81481D8F80000F7B2A5
:1008E00000F00700B04207D288F80070D8F8000086
:1008F00000F00700B04254D128683D4C810712D562
:10090000400703D5206840F4E050206028780007B5
:1009100003D5206840F4604020602068A96820F07A
:10092000F000084320602878C0072DD0304968685F
:100930000839012812D0022813D0032811D00968E1
:10094000890700292DDA216821F003010143216084
:10095000FFF71CFF814641F2883A0EE009688903DF
:10096000EFE709688901ECE7FFF710FFA0EB090149
:10097000514502D90320BDE8F0872068696800F07E
:100980000C00B0EB810FEFD1D8F80010404601F019
:100990000701B14207D90770006800F00700B042B4
:1009A00001D00120E7E72878400705D52068E968ED
:1009B00020F4E050084320602878000706D520681E
:1009C000296920F4604040EAC100206000F038F856
:1009D0002168084AC1F30311515CC8400649086008
:1009E00006480068FFF7FAFE0020C4E7003C02401A
:1009F00008380240172200081C00002014000020C4
:100A00000448054900680968044AC1F38221515C21
:100A1000C84070471C000020083802402722000808
:100A20000448054900680968044AC1F34231515C31
:100A3000C84070471C0000200838024027220008E8
:100A4000154810B5006810F00C02144813D041107E
:100A5000042A0FD0082A0ED10F4C241F22682368C5
:100A600002F03F025B0207D52068C0F38810A0FBAC
:100A7000010106E0084610BD2168C1F38811A1FB01
:100A800000010023FFF79CFB2168C1F30141491CD1
:100A90004900B0FBF1F010BD083802400024F4001A
:100AA0002DE9F84F04006ED02078DFF84C93C00792
:100AB000A9F104054AD009F104000168C1F38101DC
:100AC000012908D00068C0F3810002280AD1D9F8B2
:100AD0000000400206D52868800337D560680028EA
:100AE000E1D033E06068B0F5803F10D0B0F5A02FC2
:100AF000286810D020F480302860286820F48020F6
:100B000028606068A8B1FFF741FE06460DE028683E
:100B100040F48030F4E740F480202860F7E700BF1D
:100B2000FFF734FE801B642873D828688003F7D54C
:100B30000CE0FFF72BFE064605E000BFFFF726FEA0
:100B4000801B6428F0D828688003F7D42078DFF869
:100B5000AC8280074FF0000A3ED5A748001D01680F
:100B600011F00C0F08D00068C0F3810002280BD1EF
:100B7000D9F80000400207D42868800716D5E0683D
:100B8000012800D112E033E1E068B8B10120C8F8D3
:100B90000000FFF7FBFD064605E000BFFFF7F6FD8E
:100BA000801B0228C0D828688007F7D528682169EB
:100BB00020F0F80040EAC10028600DE0C8F800A06D
:100BC000FFF7E4FD064604E0FFF7E0FD801B022886
:100BD0001FD828688007F7D42078000722D5864FD1
:100BE00087486169703771B101210160FFF7CEFD5F
:100BF000064604E0FFF7CAFD801B022809D83868C2
:100C00008007F7D50EE0C0F800A0FFF7BFFD06464D
:100C100005E082E0FFF7BAFD801B02287DD8386826
:100C20008007F7D42078400768D5DFF8CCB10027DB
:100C30000BF13C0BDBF80000C0000BD4DBF800101C
:100C400041F08051CBF80010DBF80000012700F0E4
:100C5000805000906B4E3068C00510D4306840F46E
:100C600080703060FFF792FD009005E0FFF78EFD89
:100C70000099401A022850D83068C005F6D55E4E5B
:100C8000A0686C3601280FD00528306810D020F0FD
:100C900001003060306820F004003060A068B8B116
:100CA000FFF774FD00900FE0306840F00100F4E7BA
:100CB00040F004003060F7E7FFF768FD0099411A43
:100CC00041F28830814266D830688007F4D50EE062
:100CD000FFF75CFD009007E0FFF758FD0099411A0F
:100CE00041F28830814256D830688007F4D42FB161
:100CF000DBF8001021F08051CBF80010A069C8B3D8
:100D00003D49091D0968C1F3810102294AD0022821
:100D1000504607D0C8F8600000E03CE0FFF736FD21
:100D200004463BE04746C8F86000FFF72FFD064643
:100D300005E000BFFFF72AFD801B02282BD828689A
:100D40008001F7D4D4E907010843A16A2E4A490873
:100D500002EB0141626A41EA8211084394F82C10C7
:100D600040EA0161C9F8001001203866FFF70EFD66
:100D7000044606E03EE000BFFFF708FD001B022826
:100D800009D828688001F7D534E000BFFFF7FEFCE2
:100D9000001B022802D90320BDE8F88F28688001D3
:100DA000F4D427E00128F7D0D9F80000E26900F474
:100DB000800191421CD1226A00F03F01914217D17B
:100DC00047F6C071626A0140B1EB821F10D1A26A7E
:100DD0004FF0FF3300F4403103EB5202B1EB024F0E
:100DE00006D194F82C1000F07060B0EB016F01D0C8
:100DF0000120D1E70020CFE704380240000047423D
:100E0000800E4742007000400000FFFF10B5401EFA
:100E1000B0F1807F01D3012010BD4FF0E02460616C
:100E20000F21601701F02CF80020A061072020613D
:100E3000002010BD7047704770B590F83C20012A23
:100E400032D0012480F83C40022280F83D20036823
:100E50005A689D6822F070060A6832435A60134B44
:100E600002689A4214D0B2F1804F11D0104B9A42CE
:100E70000ED0104B9A420BD00F4B9A4208D00F4B1A
:100E80009A4205D00E4B9A4202D00E4B9A4204D1A0
:100E9000496825F080031943916080F83D400021A6
:100EA00080F83C10084670BD022070BD0000014073
:100EB0000004004000080040000C00400004014015
:100EC000004001400018004010B5040003D094F821
:100ED0003D0010B107E0012010BD002084F83C0067
:100EE000204600F01FF8022084F83D00211D2068F4
:100EF00000F0D4FD012084F8460084F83E0084F818
:100F00003F0084F8400084F8410084F8420084F8EF
:100F1000430084F8440084F8450084F83D00002034
:100F200010BD000008B5154A0168154891420ED160
:100F3000016841F0100101600068002200F010001B
:100F4000009011463620FFF78FFC362010E00D4A46
:100F5000914211D1016841F0200101600068002236
:100F600000F02000009011463720FFF77DFC37206D
:100F7000BDE80840FFF76ABC08BD00000010004053
:100F8000403802400014004090F83D10012901D083
:100F900001207047022180F83D1000681149884205
:100FA00014D0B0F1804F11D00F4988420ED00F49B4
:100FB00088420BD00E49884208D00E49884205D09D
:100FC0000D49884202D00D49884204D1816801F060
:100FD0000701062903D0016841F0010101600020EA
:100FE000704700000000014000040040000800407D
:100FF000000C004000040140004001400018004087
:1010000090F83D10012901D001207047022180F89D
:101010003D100168CA6842F00102CA6000681149C7
:10102000884214D0B0F1804F11D00F4988420ED0C1
:101030000E4988420BD00E49884208D00D4988429B
:1010400005D00D49884202D00C49884204D18168FC
:1010500001F00701062903D0016841F00101016098
:1010600000207047000001400004004000080040DC
:10107000000C004000040140004001400018004006
:1010800001680A6A41F211131A4207D10A6A9B10D9
:101090001A4203D10A6822F001020A60012180F895
:1010A0003D1000207047704770B504460068016924
:1010B0004FF00005C943890715D4C168C9438907A2
:1010C00011D4E91E01610120207720688069800722
:1010D000204602D0FFF7E7FF04E000F098F8204632
:1010E00000F096F8257720680169C943490717D4AD
:1010F000C168C943490713D46FF00401016102209C
:1011000020772068806910F4407F204602D0FFF7E6
:10111000CAFF04E000F07BF8204600F079F825775C
:1011200020680169C943090716D4C168C943090782
:1011300012D46FF008010161042020772068C06993
:101140008007204602D0FFF7AEFF04E000F05FF812
:10115000204600F05DF8257720680169C943C9067B
:1011600017D4C168C943C90613D46FF010010161D7
:10117000082020772068C06910F4407F204602D004
:10118000FFF791FF04E000F042F8204600F040F83D
:10119000257720680169C943C90708D1C168C943D7
:1011A000C90704D1891E0161204600F033F8206888
:1011B0000169C943090609D4C168C943090605D4B0
:1011C0006FF0800101612046FFF734FE206801695D
:1011D000C943490609D4C168C943490605D46FF01B
:1011E00040010161204600F06BF820680169C943A5
:1011F00089060BD4C168C943890607D46FF0200162
:1012000001612046BDE87040FFF715BE70BD704714
:10121000704700002DE9F04300682649884246D116
:101220002548264A00230188491C1FFA81F8A0F8A6
:1012300000804188491C8FB247808188491C8EB24A
:101240008680C188491C8DB2C5800189491C8CB239
:1012500004814189491C89B2418189468189491C9F
:101260001FFA81FC0121A0F80CC01180B8F10A0F0F
:1012700001D303805180642F01D343809180C82E15
:1012800001D38380D180B5F5967F01D3C3801181CE
:10129000B4F5FA7F01D303815181B9F57A7F01D387
:1012A00043819181BCF5FA6F01D38381D181BDE87F
:1012B000F08300000010004000000020B400002077
:1012C0007047704770470000F8B501680446086829
:1012D000CA684B6910F00F0F4FF0000559D003F0AA
:1012E000010602F49077374365D0C10705D0D105D8
:1012F00003D5216C41F001012164410705D5D907CF
:1013000003D0216C41F002012164810705D5D90782
:1013100003D0216C41F004012164010707D502F0DC
:101320002001314303D0216C41F008012164216C7C
:1013300000293AD0800604D5900602D5204600F058
:1013400040FC20684069216CC0F38010090700D47C
:1013500060B3204600F00EFC20684069400621D5AD
:101360002068143050E8001F21F0400140E80012CE
:10137000002AF5D1A06BA8B16C490165A06BFFF7FD
:10138000DFF8002811D0A06B016D01B0BDE8F0407E
:10139000084783060FD593060DD52046BDE8F840D3
:1013A00000F00FBC2046FFF78DFFF8BD2046FFF789
:1013B00089FF2564F8BD266B2023012E79D1C6064E
:1013C00077D5D60675D50868486800904869400604
:1013D00040D5A16B086840680004000CEAD0A28DDB
:1013E0008242E7D9E085C869B0F5807F2DD02068BA
:1013F0000C3050E8001F21F4807140E80012002AF0
:10140000F5D12068143050E8001F21F0010140E8B8
:101410000012002AF5D12068143050E8001F21F096
:10142000400140E80012002AF5D184F83E302563DF
:1014300020680C3050E8001F21F0100140E8001235
:10144000002AF5D1A06BFFF732F8A08DE18D401A8C
:1014500081B229E0A08DE18D401A81B2E08D002893
:10146000A8D00029A6D020680C3050E8002F22F424
:10147000907240E80026002EF5D12068143050E824
:10148000002F22F0010240E80026002EF5D184F85A
:101490003E30256320680C3050E8002F22F0100207
:1014A00040E80023002BF5D12046FFF70AFFF8BDE6
:1014B000FFE705062BD5150629D594F83D00212810
:1014C000F5D1A068B0F5805F01D12069B0B1206A84
:1014D000411C2162216800784860E08C401E0004B5
:1014E000000CE084E3D12068C16821F08001C16074
:1014F0002068C16841F04001C160D8E7206A0088D7
:10150000C0F308004860206A801C2062E5E74006BE
:10151000CDD55006CBD5CA68204622F04002CA601D
:1015200084F83D3000F064F9C1E70000651B000855
:1015300070B5040004D094F83D00002510B106E019
:10154000012070BD84F83C50204600F023F8242090
:1015500084F83D002068C16821F40051C160204634
:1015600000F090FB2068016921F49041016120683E
:10157000416921F02A0141612068C16841F40051AC
:10158000C1602564202084F83D0084F83E000020DE
:1015900070BD0000F0B587B0044614216846FEF720
:1015A00059FE2A4F236800222949022403250726D1
:1015B0002848BB4221D1264B14331F6847F010073F
:1015C0001F601B6803F0100305930B6843F00103D1
:1015D0000B60096802AB01F0010105916902CDE9D8
:1015E000001483E864006946FEF7CEFF002211462E
:1015F0002520FFF739F9252023E0174FBB4222D1E0
:10160000134B10331F6847F400371F601B6803F447
:10161000003305930B6843F001030B60096802ABCC
:1016200001F0010105910C21CDE9001483E864006B
:101630006946FEF7A9FF002211462620FFF714F99C
:101640002620FFF703F907B0F0BD000000100140AD
:1016500030380240000002400044004090F83E3024
:10166000202B0ED159B152B190F83C30012B08D04B
:10167000012380F83C300023036300F089BB012084
:10168000704702207047000000681A4988422BD139
:10169000194890F80211F9B990F8012190F8001159
:1016A000815490F801110022491CC9B280F801113F
:1016B000012906D00123022907D0817966290FD09C
:1016C00012E00178552905D10EE04178552904D062
:1016D000AA2909D080F8012106E080F8013103E051
:1016E00080F8012180F8023104490122A1F5A2709D
:1016F000FFF7B4BF004400404C0100204C02002022
:101700002DE9F843044690F83D001F4616460D4665
:1017100020284CD1C5B1BEB194F83C00012846D078
:10172000012084F83C004FF00008C4F840802120DC
:1017300084F83D00FFF72AF8A6848146E684A06875
:10174000B0F5805F03D004E00120BDE8F883206994
:1017500028B12E465FF0000584F83C800EE000269C
:10176000FAE78021204600F030FBA0B9AEB116F8B0
:10177000010B21684860E08C401EE084E08C4B4601
:101780004FF0000200970028EBD14FF040012046B7
:1017900000F01BFB30B10320D7E735F8020BC0F394
:1017A0000800E6E7202084F83D000020CDE7022075
:1017B000CBE790F83D30202B18D1A9B1A2B190F819
:1017C0003C30012B12D001628284C284002101646A
:1017D000212280F83D2080F83C100068C16841F06B
:1017E0008001C160002070470120704702207047CF
:1017F0007047FEE72DE9F04186B014216846FEF7F8
:1018000029FD27480024016841F0040101600168B6
:1018100001F004010591016841F0200101600168B7
:1018200001F020010591016841F08001016001682B
:1018300001F080010591016841F00101016001683A
:1018400001F001010591016841F04001016000686B
:10185000144F00F040004FF4C06505900022294667
:101860003846FEF78EFFDFF840807E1500223146B5
:101870004046FEF786FF00950125CDE901546946F3
:1018800038460394FEF780FE0096CDE90154694680
:1018900040460394FEF778FE06B0BDE8F0810000F4
:1018A0003038024000140240001802401CB50024E9
:1018B0000E4800940C49019401605321C0E90114C1
:1018C00040F2E7318461C160FFF7FEFA08B1FEF72C
:1018D000ECFD0094694605480194FFF7ADFA002835
:1018E00001D0FEF7E2FD1CBD0010004024000020E6
:1018F0001CB500240E4800940C490194016053214A
:10190000C0E901144FF6FF718461C160FFF7DCFA92
:1019100008B1FEF7CAFD0094694605480194FFF737
:101920008BFA002801D0FEF7C0FD1CBD001400405A
:101930006C0000200C4810B50A4901604FF4E131F9
:101940004160002181600C22C160C0E90412816104
:10195000C161FFF7EDFD002803D0BDE81040FEF7A0
:10196000A4BD10BD00100140C40000200C4810B5FB
:101970000A4901604FF4E1314160002181600C228D
:10198000C160C0E904128161C161FFF7D1FD002887
:1019900003D0BDE81040FEF788BD10BD00440040F4
:1019A00008010020FEE7FEE770477047FEF7F4BE2F
:1019B00030B593B030216846FEF74CFC14210CA8DA
:1019C000FEF748FC1D480025016841F08051016088
:1019D000006800F0805011901948016841F480417E
:1019E00001600068022400F4804011900120009002
:1019F000000401908001CDE9064008AA0420A82136
:101A000082E813000B906846FFF74AF808B172B6F7
:101A1000FEE70CA90F2081E831004FF4A0500F9091
:101A20004FF48050109005210CA8FEF74FFF0028BE
:101A300001D072B6FEE713B030BD0000403802405E
:101A4000007000400248016841F470010160704775
:101A500088ED00E00148FFF727BB000024000020CC
:101A60000148FFF721BB00006C00002070B54FF665
:101A7000FA75094E281A84B2306844623046FFF77E
:101A800083FA306801E0416A8CB2AC42FBD3BDE816
:101A900070400148FFF7F4BA6C000020F0B502680E
:101AA000254C264D264E274F274B4FF0804CA04209
:101AB00009D0604507D0A84205D0B04203D0B84253
:101AC00001D0984204D122F0700E4A6842EA0E0218
:101AD000A0421BD0604519D0A84217D0B04215D003
:101AE000B84213D0984211D0184DA8420ED0184DCC
:101AF000A8420BD0174DA84208D0174DA84205D0D8
:101B0000164DA84202D0164DA84203D122F44075CA
:101B1000CA682A434D6922F080022A4302608A681B
:101B2000C2620A688262A04201D0984201D109696A
:101B3000016301214161F0BD00000140000400404B
:101B400000080040000C004000040140004001403B
:101B5000004401400048014000180040001C0040C3
:101B60000020004010B5806B0021C185C184FFF7C3
:101B7000A9FB10BD01680C3151E8002F22F49072CE
:101B800041E80023002BF5D10168143151E8002F02
:101B900022F0010241E80023002BF5D1016B01295D
:101BA00009D101680C3151E8002F22F0100241E800
:101BB0000023002BF5D1202180F83E100021016385
:101BC000704708B590F83E10222901D0022008BDC8
:101BD00082684FF480539A4201D1016921B1816A30
:101BE0009A421BD04AB10AE00268816A5268C2F385
:101BF00008020A80816A891C08E0026972B10268E1
:101C0000526802F07F020A70816A491C8162C18DAC
:101C1000491E0904090CC18503D019E00268526805
:101C2000F1E70168CA6822F02002CA600168CA6848
:101C300022F48072CA6001684A6922F001024A6196
:101C4000202180F83E10016B012903D0FFF71CFD15
:101C5000002008BD0021016301680C3151E8002F0C
:101C600022F0100241E80023002BF5D101680A6838
:101C7000D20602D50A6849680091818DFFF721FBE1
:101C8000E6E7000070B5044600680169E26821F4E7
:101C90004051114301612169A068E269084361690B
:101CA000114308432168CA6849F20C639A4302430E
:101CB000CA6020684169A26921F440711143416101
:101CC00031492068884202D03049884202D1FEF76B
:101CD000A7FE01E0FEF794FEE269002319216425C6
:101CE0003226B2F5004F626828D0A0FB0101930FA5
:101CF0009200FEF765FA0146B0FBF5F06FF01802AE
:101D0000504301EB800006EB0010B0FBF5F000F053
:101D1000F002B1FBF5F002EB0012B1FBF5F06FF051
:101D20001803584301EB800006EB0010B0FBF5F000
:101D300000F00F0021681044886070BDA0FB010115
:101D400092185B41FEF73CFA0146B0FBF5F0020148
:101D5000B1FBF5F06FF01803584301EB800006EB80
:101D6000C000B0FBF5F000F0F80002EB4002B1FB60
:101D7000F5F0584301EB800006EBC000B0FBF5F036
:101D800000F00700D6E700000010014000140140F9
:101D900081628285C28500210164222280F83E2072
:101DA00080F83C10016921B10168CA6842F4807270
:101DB000CA6001684A6942F001024A610068C1686C
:101DC00041F02001C160002070472DE9F0419846A4
:101DD00017460E460446069D27E0681C25D02DB107
:101DE000FEF7D4FCA0EB0800A8421ED920680C30F6
:101DF00050E8001F21F4D07140E80012002AF5D10C
:101E00002068143050E8001F21F0010140E8001262
:101E1000002AF5D1202084F83D0084F83E000020FF
:101E200084F83C000320BDE8F0812068006836EAB1
:101E3000000004D00020B842CFD00020F3E70120FA
:101E4000F9E700000148FFF73FBA0000C400002096
:101E50000148FFF739BA000008010020FEE7000042
:101E60000FB4054B10B503A9044A029800F028F8F6
:101E700010BC5DF814FB00001520000820000020B5
:101E80000907090E002804DB00F1E02080F80014A7
:101E9000704700F00F0000F1E02080F8141D70473B
:101EA00002E008C8121F08C1002AFAD17047704723
:101EB000002001E001C1121F002AFBD17047000081
:101EC0002DE9FF4F89B09B460446002506E02528F2
:101ED0000BD05A460B999047641C6D1C2078002843
:101EE000F5D10DB02846BDE8F08F0027B846012295
:101EF000474900E0074314F8013F203B02FA03F092
:101F00000842F7D120782E2819D114F8010F47F094
:101F100004072A280ED06FF02F022078A0F130019C
:101F200009290CD808EB880102EB410100EB0108FC
:101F3000641CF2E70A98641C50F8048B0A9020781D
:101F40000028CED0642808D0692806D075281ED075
:101F50005A460B9990476D1C58E00A994FF00A09B0
:101F600001C90A91002802DA40422D2102E0390518
:101F700004D52B218DF82010012103E0F90704D0AE
:101F80002021F7E78A4608AE0DE00021FAE70A991A
:101F90004FF00A0901C90A91F7E74946FEF765F9CA
:101FA000303106F8011D0028F7D1ADEB060000F135
:101FB0002009780701D44FF00108C84502DDA8EBDD
:101FC000090000E000208046002706E008A85A46E5
:101FD000C05D0B9990476D1C7F1C5745F6DB04E0F4
:101FE00030205A460B9990476D1CB8F10001A8F1BA
:101FF0000108F5DC05E016F8010B5A460B999047ED
:102000006D1CB9F10001A9F10109F4DC641C65E75C
:102010000928010013B54FF6FF73012269460248F3
:10202000FFF76EFB00981CBDC4000020C4B0FEF793
:10203000BBFBFFF7BDFCFFF7DDFBFFF737FCFFF74E
:1020400079FCFFF793FCFFF753FC4FF482722149B0
:102050006846FEF7E6F82048FEF7D2FF1F48FEF775
:10206000CFFF01221E491F48FFF7F8FA1E4D002638
:102070001E4F4FF4FA7402E02046FEF773FAFEF7A3
:102080008DF90028F8D142A941A8FEF7CAF9BDF898
:1020900004018DF80200BDF808018DF80300F889ED
:1020A0000128F0D195F8020101280CD185F80261D0
:1020B000002421462A5D0EA0FFF7D2FE2E55641C97
:1020C000E4B2072CF5D3052269460648FFF771FBF9
:1020D000FE81D8E714210008240000206C000020B5
:1020E0004C020020080100204C010020B400002018
:1020F00055415254325F54785F4275666665722E60
:10210000446174615B25645D203A202025640D0ADA
:1021100000000000AA55000066000000000000005A
:1021200000000000000000000000000000000000AF
:10213000000000000000000000000000000000009F
:10214000000000000000000000000000000000008F
:10215000000000000000000000000000000000007F
:10216000000000000000000000000000000000006F
:10217000000000000000000000000000000000005F
:10218000000000000000000000000000000000004F
:10219000000000000000000000000000000000003F
:1021A000000000000000000000000000000000002F
:1021B000000000000000000000000000000000001F
:1021C000000000000000000000000000000000000F
:1021D00000000000000000000000000000000000FF
:1021E00000000000000000000000000000000000EF
:1021F00000000000000000000000000000000000DF
:1022000000000000000000000000000000000000CE
:1022100000000000000000000000000000000001BD
:10222000020304060708090000000001020304007D
:10223000502200080000002024000000A01E00081A
:1022400074220008240000202C060000B01E0008A4
:10225000000000000000000000000000000000007E
:102260000100000010000000000000000024F40045
:04227000000000006A
:040000050800018965
:00000001FF
